:020000020000FC
:020000007DC0C1
:10000C009EC01F9310E30A5010F01395FCCF0F9372
:10001C00012F07D00F91065F10E3010F02D01F9143
:10002C0008951F932F93102F02950F70006122B328
:10003C002078022B02BB1BD01F701061122B12BB3D
:10004C0016D01BD02F911F9108951F932F93102F13
:10005C0002950F7022B32078022B02BB08D01F70C0
:10006C00122B12BB04D009D02F911F910895959A91
:10007C000000000000009598089502E40A95F1F73D
:10008C00089500E219EC1A95F1F70A95D9F708953D
:10009C000F9301B30F6301BB26E0F3DF2A95E9F759
:1000AC0003E002BBE4DFEDDFE2DFEBDFE0DFE9DF03
:1000BC0002E002BBDCDFE5DF08E2C7DF0CE0C5DFF6
:1000CC0004E0C3DF0F9108950F9301E0BEDFD9DF89
:1000DC000F9108950F930591003011F0A2DFFBCF23
:1000EC000F9108950F9302E0B0DFCBDF0F910895CD
:1000FC000FE50DBF04E00EBFCBDFE6DF0CE90BBD57
:10010C000FE30ABD09E00EBD00E109BF8827772780
:10011C0066275527332778943030F1F330E0D4DF5D
:10012C00E6E7F1E0D7DF082F6CDF0AE37ADF072F71
:10013C0068DF0EE276DF00E3060F73DFEDCF0F937F
:10014C000FB753955A3071F4552763956A3049F4BB
:10015C00662773957C3329F477278395833609F4C6
:10016C00882731E00FBF0F91189554696D653A20BF
:02017C00000081
:00000001FF
