:020000020000FC
:100000000FE50DBF04E00EBF0FEF01BB31D047D0AD
:1000100004E507D005E605D003E703D004E701D0E7
:10002000FFCF102F02950F70006102BB10D01F7020
:10003000106112BB0CD011D00895102F02950F70D3
:1000400002BB05D01F7012BB02D007D00895959A4D
:100050000000000000009598089502E40A95F1F769
:10006000089501E219EC1A95F1F70A95D9F7089568
:1000700022E3F7DF2A95E9F703E002BBE8DFF1DFCF
:10008000E6DFEFDFE4DFEDDF02E002BBE0DFE9DF28
:1000900008E2D3DF0CE0D1DF04E0CFDF089501E018
:0E00A000CCDFDFDF089502E0C8DFDBDF08956C
:00000001FF
