:020000020000FC
:0200000006C038
:10000C0023C00FE50DBF04E00EBF0FEF01BB5FD0A7
:10001C0075D001E00BBD0FE809E00EBD00E109BF92
:10002C00442755276627332778943030F1F330E096
:10003C0065D0062F24D00AE316D0052F20D00AE372
:10004C0012D0042F1CD0F1CF0F930FB74395443629
:10005C0039F4442753955C3311F45527639531E0FB
:10006C000FBF0F911895102F02950F70006102BBF6
:10007C001DD01F70106112BB19D01ED008951F9394
:10008C0010E30A5010F01395FCCFEDDF065F10E380
:10009C00010FE9DF1F910895102F02950F7002BB1D
:1000AC0005D01F7012BB02D007D00895959A00009E
:1000BC00000000009598089502E40A95F1F7089560
:1000CC0001E219EC1A95F1F70A95D9F7089522E394
:1000DC00F7DF2A95E9F703E002BBE8DFF1DFE6DFA3
:1000EC00EFDFE4DFEDDF02E002BBE0DFE9DF08E297
:1000FC00D3DF0CE0D1DF04E0CFDF089501E0CCDFEB
:0C010C00DFDF089502E0C8DFDBDF0895AC
:00000001FF
